:020000040800F2
:10000000C8110020092800082D0500082F05000848
:1000100033050008370500083B0500080000000014
:100020000000000000000000000000003F05000884
:1000300041050008000000004305000845050008D0
:100040002328000823280008232800082328000864
:100050002328000823280008232800082328000854
:100060002328000823280008232800082328000844
:100070002328000823280008232800082328000834
:100080002328000823280008232800082328000824
:100090002328000823280008232800082328000814
:1000A0002328000823280008232800082328000804
:1000B00023280008232800082328000823280008F4
:1000C00023280008232800082328000823280008E4
:1000D00023280008292600084116000839130008C3
:1000E00023280008232800082328000823280008C4
:1000F00023280008232800082328000823280008B4
:100100002328000823280008E51F000823280008EA
:10011000D51800082328000823280008DF14000849
:100120002328000823280008232800082328000883
:100130002328000823280008232800082328000873
:100140002328000823280008232800082328000863
:100150002328000823280008232800086D1F000812
:100160002328000823280008232800082328000843
:100170002328000823280008232800082328000833
:10018000232800082328000800F002F800F0B2F845
:100190000AA090E8000C82448344AAF10107DA45E2
:1001A00001D100F0A7F8AFF2090EBAE80F0013F082
:1001B000010F18BFFB1A43F0010318473875000000
:1001C000587500000A444FF0000C10F8013B13F082
:1001D000070408BF10F8014B1D1108BF10F8015BA0
:1001E000641E05D010F8016B641E01F8016BF9D193
:1001F00013F0080F1EBF10F8014BAD1C0C1B09D1EA
:100200006D1E58BF01F801CBFAD505E014F8016B5B
:1002100001F8016B6D1EF9D59142D6D370470000ED
:100220000023002400250026103A28BF78C1FBD8FF
:10023000520728BF30C148BF0B6070476E2904F0D9
:100240001982702904F08383662907F024816529C7
:1002500007F02181672907F01E816129AFF3008033
:1002600003681B0A28BF41F08001692904F0C68198
:10027000642904F0C381752904F0C0816F2904F05A
:100280001183782904F04F83E92904F0AB82E42933
:1002900004F0A882F52904F0A582EF2904F00E836A
:1002A000F82904F04E830368DB0928BF41F0800180
:1002B000632904F01A82732904F01F82E32904F0F1
:1002C0000A86F32904F00F86002070471FB507F057
:1002D000D8F804F063FE04000020002106F080FA44
:1002E000401C60600020002106F064FAE0601FBD41
:1002F00010B510BD04F024FE1146FFF7E7FF00F033
:10030000CBF804F0FDFE03B4FFF7F2FF03BC02F0EC
:100310002BF9000030B5039C774D2860774D29609C
:10032000774D2A60774D2B60774D2C6030BD38B506
:10033000044600200346024601460090FFF7EAFF0C
:1003400096220221204600F0ACFEDFED700A9FED00
:100350006F0A00F010FA4FF4FA7002F035FA6CA050
:1003600001F084F838BD2DE9F84306460F461446DF
:100370001D46DDF82080002003460246014600901D
:10038000FFF7C8FF0A21204600F0D1FEDFED5F0A2B
:100390009FED5E0A00F0EFF996220221284600F058
:1003A00080FEDFED5A0A9FED590A00F0E4F94FF4A0
:1003B000FA7002F009FADFED580A9FED570A00F0D3
:1003C000DAF94FF4FA7002F0FFF9B8F1000F04D136
:1003D0003946304600F0E8FE0EE00CE0DFED4B0A57
:1003E0009FED4A0A00F0C7F9002003460246014685
:1003F0000090FFF78FFFF1E7DFED440A9FED430A1E
:1004000000F0B9F94FF47A7002F0DEF900200346EB
:10041000024601460090FFF77DFFBDE8F88310B566
:100420004FF4A06002F010FAA82002F06BF94FF42C
:10043000165000F0BAFF4FF4165001F01AF94FF4BD
:10044000165001F0B1FA4FF4165001F012FD4FF4BE
:10045000E13002F097F801F046FC00202F490880B7
:100460002F4908800B2140F2E73001F0A5FB0B215A
:1004700040F2E73001F0ECFB00212A4803F063F87A
:100480000021294803F061F801F0B8F801F08BF879
:10049000012001F0A6F810BD08B5FFF7C0FF1E202F
:1004A000FFF745FF0020102306224FF497710090BC
:1004B000C920FFF758FF00201023062240F29111B7
:1004C00000904FF49770FFF74EFF00201023062294
:1004D00040F2F511009040F29110FFF744FF012027
:1004E0001023062240F25921009040F2F510FFF748
:1004F0003AFF002008BD00004C0000205000002002
:1005000054000020580000205C0000200000000083
:1005100073746172740D0A000000C8420C0100205F
:10052000100100200020004000040040704700BF80
:10053000FEE700BFFEE700BFFEE700BFFEE7704733
:1005400070477047704700000CB500200190009084
:100550007648006840F480307449086000BF7348F2
:10056000006800F4003000900198401C0190009851
:1005700018B90198B0F5A04FF1D16C48006800F4AB
:10058000003010B10120009001E0002000900098A0
:10059000012846D165484030006840F080506349EA
:1005A000403108606248006840F44040604908609B
:1005B0005E48083000685D490831086008460068F8
:1005C00040F4004008600846006840F4A05008600D
:1005D0005848091F0860081F006840F08070091F14
:1005E000086000BF5148006800F000700028F9D092
:1005F00040F20570504908604C480830006820F00F
:1006000003004A49083108600846006840F00200CB
:10061000086000BF45480830006800F00C0008285A
:10062000F8D10CBD10B54548006840F4700043494E
:1006300008603E48006840F001003C490860002026
:100640003A4908310860394800683D49084037494F
:1006500008603C48091D0860081F006820F48020DD
:10066000091F0860002031490C310860FFF76CFF5A
:100670004FF0006031498039086010BD70B500202E
:100680000022022300240221284D08352D6805F0A0
:100690000C0020B1042806D0082834D107E02A4DE8
:1006A0002A4E356033E02A4D284E35602FE01F4D2D
:1006B0002D1D2D68C5F380541C4D2D1D2D6805F092
:1006C0003F0154B1224DB5FBF1F5184E361D366889
:1006D000C6F3881605FB06F209E01B4DB5FBF1F5E4
:1006E000124E361D3668C6F3881605FB06F20F4D0E
:1006F0002D1D2D68C5F301456D1C6B00B2FBF3F594
:10070000124E356003E0104D104E356000BF00BF43
:10071000064D08352D68C5F303150E4E705D0B4D63
:100720002D68C540094E356070BD0000003802409C
:100730000070004008544007003C024088ED00E093
:10074000FFFFF6FE103000240024F4006C000020AF
:1007500000127A0070000020FE4A1060FE4A11600C
:100760000A2290FBF2F2FD4B1A600A2291FBF2F290
:10077000FB4B1A60704710B52DED068BB0EE408A2A
:10078000F0EE608AB5EEC08AF1EE10FA07D80020CC
:10079000F44908600120F449C1F8A8020BE0B5EE65
:1007A000C08AF1EE10FA06DD0120EE490860002053
:1007B000ED49C1F8A802F5EEC08AF1EE10FA07D8AB
:1007C0000120EA4908600020E949C1F8A0020BE0D5
:1007D000F5EEC08AF1EE10FA06DD0020E34908606C
:1007E0000120E349C1F8A00218EE100A06F0D8FD76
:1007F00041EC1A0BB0EE4A0AF0EE6A0A05F099F8DD
:10080000B0EE409AF0EE609A51EC190B06F00AF83F
:1008100008EE100A18EE900A06F0C2FD41EC1A0B21
:10082000B0EE4A0AF0EE6A0A05F083F8B0EE409A9C
:10083000F0EE609A51EC190B05F0F4FF08EE900A07
:10084000BCEEE80A10EE101ACA4802F07EFEBCEEBA
:10085000C80A10EE101AC84802F075FEBDEC068BEF
:1008600010BD70B505460C46BA480068BB4909681A
:10087000401AA84207DBB7480068B8490968401A1F
:10088000B449086001E0B3480560B3480068B44962
:100890000968401AA04207DBAF480068B049096800
:1008A000401AAD49086001E0AB480460AA4890EDE9
:1008B000000AF8EEC00AA74890ED000AB8EEC00A98
:1008C000FFF759FF1E2001F07FFF70BD10B5AB4848
:1008D0000068AB490968401AA8490860A9484068FF
:1008E000A8498860084600684860A4480068086015
:1008F0000846806849680844A2490968084400EE2F
:10090000100AB8EEC00AA048D0ED000A20EE200A76
:100910009C48D0ED000AF8EEE00A9C4890ED001AE1
:1009200001EE200A9748006896494968401A00EE8F
:10093000900AF8EEE00A964890ED001A01EE200ABF
:10094000944880ED000A944890ED000AB8EEC00A81
:100950009048D0ED000A30EE600ABDEEC00A8F4824
:1009600080ED000A8C4890ED000AB8EEC00A894874
:10097000D0ED000A30EE200ABDEEC00A884880EDB6
:10098000000A8648006887490968884204DA854871
:1009900000688249086009E0804800688249096867
:1009A000884203DD804800687C4908607C48006814
:1009B0007C490968884204DA7A4800687849086006
:1009C00009E07748006878490968884203DD76487D
:1009D000006873490860724890ED000AF8EEC00A9A
:1009E0006E4890ED000AB8EEC00AFFF7C4FE322050
:1009F00001F0EAFE10BD10B56C4800686C4909684A
:100A0000401A6A4908606B4800686B490968401AD7
:100A10006849086069484068684988600846006815
:100A200048606248006808606548406864498860BA
:100A30000846006848605F48006808605D480068D4
:100A4000052806DCDFED5F0A9FED5E0AFFF793FEE7
:100A500010E15A488068594949680844574909686B
:100A6000084400EE100AB8EEC00A5748D0ED000A5C
:100A700020EE200A5148D0ED000AF8EEE00A534873
:100A800090ED001A01EE200A4C4800684B49496875
:100A9000401A00EE900AF8EEE00A4D4890ED001A78
:100AA00001EE200A3B4880ED000A45488068444931
:100AB0004968084442490968084400EE100AB8EE43
:100AC000C00A4448D0ED000A20EE200A3C48D0ED90
:100AD000000AF8EEE00A404890ED001A01EE200A04
:100AE0003748006836494968401A00EE900AF8EE27
:100AF000E00A3A4890ED001A01EE200A384880EDED
:100B0000000A90ED000A2348D0ED000A30EE600A9A
:100B10003448D0ED000AF8EEE00A334890ED001AB0
:100B200000EEC10ABDEEC00A1C4880ED000A2C4848
:100B300090ED000A1748D0ED000A30EE200A29484F
:100B4000D0ED000AF8EEE00A274890ED001A00EE1A
:100B5000810A4BE0800000208400002088000020F3
:100B60008C000020A482424200804242980240420F
:100B70000000404200040040001C004038000020FB
:100B8000AC000020500200209800002094000020BB
:100B90009C000020A0000020B0000020A400002045
:100BA000A8000020B8000020B4000020240200208B
:100BB000BC00002028020020C00000205C020020B1
:100BC0006802002000000000C8000020C4000020CF
:100BD000CC000020D4000020D0000020D80000204D
:100BE000E4000020DC000020E0000020BDEEC00A90
:100BF000FE4880ED000AFE480068FE490968884208
:100C000004DAFC480068FA49086009E0F84800681E
:100C1000F9490968884203DDF7480068F44908602B
:100C2000F2480068F3490968884204DAF14800682C
:100C3000EE49086009E0ED480068EF49096888421C
:100C400003DDED480068E9490860E84890ED000AD6
:100C5000F8EEC00AE64890ED000AB8EEC00AFFF7C9
:100C60008AFD3C2001F0B0FDE0480168E0480068E2
:100C7000FFF772FD10BD10B50446022C0ED15FEDDA
:100C80002F0A1FED300AFFF776FDDC480068401C94
:100C9000DA490860642001F097FD37E00020D74969
:100CA0000860D748006878B1DFEDD60A9FEDD60A14
:100CB000FFF761FD642001F087FD5FED3E0A1FED47
:100CC0003F0AFFF758FD21E0D048006878B1DFED1A
:100CD000CE0A9FEDCC0AFFF74EFD642001F074FDB3
:100CE0005FED480A1FED490AFFF745FD0EE0DFED15
:100CF000C80A9FEDC70AFFF73EFD642001F064FDBE
:100D00005FED500A1FED510AFFF735FDBB48006843
:100D1000142804DD0020B9490860012010BD00201E
:100D2000FCE710B52DED048BBA480068002840D0D0
:100D3000B948006800283CD00020B8490860B8498C
:100D40000860AF48006818B108460068401C086099
:100D5000AE48006800B3AA490968AC4A1268881A0C
:100D600005F0D5FF41EC190BB0EE490AF0EE690A27
:100D700004F0DFFDB0EE408AF0EE608A9FEDA90B33
:100D800053EC102B51EC180B06F012F904D2A448C6
:100D90000068401CA2490860A1480068FFF76BFF8B
:100DA00038B10020A14908609B490860A0A000F06C
:100DB0005DFB9948006800287ED19E4800680128A4
:100DC0007BD192480068002876D0904800689A4904
:100DD0000968401A8D4908609848D0ED000A084615
:100DE00090ED000AB8EEC00A20EE800A944880ED2B
:100DF000000A90ED000AB1EE400ABDEEC00A7C4840
:100E000080ED000A8E4890ED000ABDEEC00A7748DA
:100E100080ED000A7648006876490968884204DA5D
:100E2000744800687249086009E0714800687249B6
:100E30000968884203DD704800686D4908606B48A6
:100E400000686C490968884204DA6A4800686749A2
:100E5000086009E06548006867490968884203DD61
:100E60006548006861490860604890ED000AF8EE46
:100E7000C00A5F4890ED000AB8EEC00AFFF77BFC9D
:100E80003C2001F0A1FC5948016859480068FFF76F
:100E900063FC5E48006805F03AFF41EC190BB0EEC8
:100EA000490AF0EE690A04F044FDB0EE408AF0EE23
:100EB000608A9FED640B01E08EE01EE053EC102B86
:100EC00051EC180B05F03AFF04D858480068401C54
:100ED000564908605548006814287DDD01204E49B8
:100EE00008604E4908605FEDC90A1FEDCA0AFFF7A6
:100EF00042FC0120BDEC048B10BD4E480068401C34
:100F0000002869D13E480068002865D04F48006835
:100F10003B490968401A3A4908604848D0ED000A40
:100F2000084690ED000AB8EEC00A20EE800A444858
:100F300080ED000A90ED000ABDEEC00A2C4880ED5D
:100F4000000A3F4890ED000AB1EE400ABDEEC00A2B
:100F5000264880ED000A264800682649096888422C
:100F600004DA244800682249086009E02048006843
:100F700021490968884203DD1F4800681C49086050
:100F80001A4800681B490968884204DA1948006851
:100F90001649086009E01548006817490968884241
:100FA00003DD1548006811490860104890ED000AFB
:100FB000F8EEC00A0E4890ED000AB8EEC00AFFF73E
:100FC000DAFB3C2001F000FC084801680848006892
:100FD000FFF7C2FB0A4800E061E0006805F097FEF9
:100FE00041EC190BB0EE490A32E00000A8000020E5
:100FF000A4000020B8000020B4000020E800002079
:101000003C00002000004843000048C3400000208E
:101010000000A04258000020040100205C000020D5
:10102000F80000200000000000002440080100201B
:101030004F4B0000FC000020F4000020EC000020DA
:10104000A00000200000000000002040F000002070
:10105000F0EE690A04F06DFCB0EE408AF0EE608AB2
:101060001FED080B53EC102B51EC180B05F066FE2E
:1010700004D86E480068401C6C4908606B480068E2
:1010800014280CDD01206A4908606A490860DFED18
:101090006A0A9FED690AFFF76EFB01202AE700202C
:1010A00028E72DE9F0412DED068B07460D46144645
:1010B00000260120614908602AE021462046FFF70A
:1010C000D0FB384605F023FE41EC180B5C4908685C
:1010D00005F01DFE41EC1A0BB0EE4A0AF0EE6A0A6A
:1010E00004F027FCB0EE409AF0EE609A53EC182B17
:1010F00051EC190B05F022FE07D252480068012876
:1011000003D100204F490860761CAE4200DD00E0AC
:10111000D3E700BF002049490860DFED470A9FED93
:10112000460AFFF728FBBDEC068BBDE8F0812DE9F0
:10113000F04104460D46002601204349086000277F
:1011400009E0DFED420A9FED410AFFF714FB64203E
:1011500001F03AFB7F1C04EB8400B7EB400FF0DB9F
:101160000020384908600120374908600FE0DFEDB2
:10117000370A9FED360AFFF7FEFA3248006818B1C9
:10118000002030490860761CAE4200DD00E0EEE74A
:1011900000BF00202C490860DFED270A9FED260ADA
:1011A000FFF7E9FABDE8F08170B505460E46002468
:1011B000002020490860284600F0D4FD04463CB9D0
:1011C000DFED1D0A9FED1C0AFFF7D5FA002070BD68
:1011D000012C07D1DFED180A9FED170AFFF7CBFAB4
:1011E0000120F4E73146284600F0CFFD1849086099
:1011F00001201849086009E0DFED0F0A9FED0E0A93
:10120000FFF7B9FA0B48006800B100E0F4E700BF4F
:10121000DFED090A9FED080AFFF7ADFA00200D493E
:101220000860044908600220D1E70000080100209E
:10123000040100205C00002000000000500000209D
:1012400068020020540000204C000020000096435B
:10125000FC0000205800002096480078964908704D
:1012600000209649944A12788854924908809348FD
:10127000407832280BD191488078302807D18F48A8
:10128000C078312803D1C9208D49086053E08B48CC
:10129000407833280CD189488078302808D1874895
:1012A000C078312804D140F22D108549086042E011
:1012B0008248407833280CD180488078302808D183
:1012C0007E48C078322804D14FF497707C4908607A
:1012D00031E07A48407834280CD17848807830283A
:1012E00008D17648C078312804D140F29110744971
:1012F000086020E07148407834280CD16F4880782D
:10130000302808D16D48C078322804D14FF4C97014
:101310006B4908600FE06948407835280BD1674871
:101320008078302807D16548C078312803D140F251
:10133000F51063490860704710B540F225516148C7
:1013400001F01CFE48B340F225515F4801F016FE43
:1013500018BB01205D4908705A4801F04DFDC4B228
:101360005448008800F40040B8B952480088B0F5ED
:10137000C87F13DA0021564801F040FF4D4800882D
:1013800018B90121524801F079FF4A4801880088C4
:10139000401C484A10804948445405E045480088AC
:1013A00040F400404349088010BD10B588B00446A1
:1013B000444801F003FC0121022002F055FE012106
:1013C000880402F09AFE4FF44060059002208DF8E8
:1013D00018008DF8190000208DF81A0001208DF8F2
:1013E0001B0005A93B4801F025FB07220B213948CA
:1013F00001F0ABFB07220A21364801F0A6FB01945D
:101400000020ADF80800ADF80A00ADF80C00ADF80A
:1014100010000C20ADF80E0001A92A4801F035FC9F
:10142000012240F22551274801F06DFD0121254898
:1014300001F0B3FC27208DF81C0003208DF81D005F
:101440008DF81E0001208DF81F0007A801F001FA99
:1014500042F2CF01632000F07BF800211C4801F02C
:101460000DFF00201349088008B010BD0FB438B537
:1014700005A800901848009A049902F04BFF00203C
:101480000090154803F052F885B200240DE000BF2B
:1014900040210C4801F05CFD0028F9D00E48015DA8
:1014A000084801F0A5FC601C84B2AC42EFDB38BCFC
:1014B0005DF814FB0C01002031000020080400201E
:1014C0006800002000480040004C00400E01002051
:1014D000001400400004024078020020704710B55C
:1014E0000121504802F0F9FA88B340F225514E48E4
:1014F00001F044FD58BB4D480078012812D14C48FA
:10150000007878B94B48008840F400404949088089
:101510000121444802F0F2FA0021424801F0AEFEF7
:10152000FFF79AFE42480078012810D13F48007822
:1015300068B94148008840F400403F4908800121D3
:10154000384802F0DBFA0021364801F097FE10BD62
:101550007FB505460C460121202002F0CEFD019505
:10156000ADF800400020ADF80800ADF80200694673
:101570002C4801F0FAFD012211462A4802F096FAA1
:101580000121284801F07AFE37208DF80C00002058
:101590008DF80D0001208DF80E008DF80F0003A8C6
:1015A00001F057F97FBD0EB50121082002F0A5FD1D
:1015B000224801F02DFD41F28830019042F2CF0027
:1015C000ADF800000020ADF80800ADF80200694653
:1015D0001A4801F0CAFD01221146184802F066FAC5
:1015E0000EBD10B5044624B10121144801F046FE99
:1015F00003E00021114801F041FE10BD08B54FF491
:10160000A06001F021F932208DF8000002208DF851
:10161000010001208DF802008DF80300684601F0FA
:1016200018F908BD00140040004C00400E010020D5
:10163000120100200C01002010010020000C0040CD
:1016400010B540F22551924801F098FC80B19048C5
:1016500001F0D2FBC4B28F480078402808DA8E48E7
:101660008C49097844548B480078401C894908709B
:1016700010BD10B588B004460121084602F0F4FC04
:101680000121480402F039FD07220221834801F0BC
:101690005CFA07220321814801F057FA0C200690DA
:1016A00002208DF81C0003208DF81D0000208DF80D
:1016B0001E0001208DF81F0006A9784801F0BAF934
:1016C00002940020ADF80C00ADF80E00ADF810004B
:1016D000ADF814000C20ADF8120002A96C4801F01E
:1016E000D4FA01216A4801F058FB4021684801F012
:1016F0003CFC012240F22551654801F004FC262003
:101700008DF8040003208DF805008DF806000120F7
:101710008DF8070001A801F09CF808B010BD70B565
:1017200005460E4600240CE000BF4021584801F059
:101730000FFC0028F9D0295D554801F059FB601CC9
:10174000C4B2B442F0DB00BF4021514801F000FCBC
:101750000028F9D000204F49087070BD2DE9F041F4
:1017600007460D464B4806780024002028700A20C2
:1017700001F02AF84748007886420FD176B100BFC1
:1017800004E04548005D3855601CC4B2B442F8DB43
:1017900040480078287000203E490870BDE8F0817C
:1017A00010B5C82001F010F8FF213D4801F020FBE2
:1017B0000A2001F009F8FF21394801F019FB0A203D
:1017C00001F002F8FF21364801F012FBC82000F0BA
:1017D000FBFF10BD10B5FF21314801F009FB0A20C5
:1017E00000F0F2FFFF212E4801F002FB0A2000F07A
:1017F000EBFFFF212A4801F0FBFA0A2000F0E4FF8A
:1018000010BD70B5044600250CE0615D204801F074
:10181000EFFA00BF40211E4801F09AFB0128F9D1E0
:10182000681CC5B2605D0028EFD170BD10B50446DC
:1018300014B91CA0FFF7E5FF012C02D11BA0FFF794
:10184000E0FF022C02D11BA0FFF7DBFF032C02D12B
:101850001AA0FFF7D6FF042C02D11AA0FFF7D1FF80
:10186000052C02D119A0FFF7CCFF062C01DAFFF7F7
:10187000B1FF10BD10B504462146054801F0B8FA85
:1018800000BF4021024801F063FB0128F9D110BDDF
:10189000004400400F010020980500200000024095
:1018A000001001407061676520300000706167655D
:1018B000203100007061676520320000706167654B
:1018C0002033000070616765203400007061676537
:1018D0002035000010B540F22551714801F04EFB53
:1018E000002860D040F225516E4801F047FB0028E7
:1018F00059D101206C490870694801F07DFAC4B2E1
:101900006A48008800F40040F0B968480088B0F5E3
:10191000C87F13DA0021664801F070FC6348008834
:1019200018B90121624801F0A9FC604801880088CB
:10193000401C5E4A10805F48445405E05B480088C4
:1019400040F40040594908805B48C078312803D1F1
:101950005AA002F0F1FC26E05748C078322803D1A3
:1019600061A002F0E9FC1EE05348C078332803D19F
:101970006BA002F0E1FC16E04F48C078342803D198
:101980006FA002F0D9FC0EE04B48C078352803D197
:1019900076A002F0D1FC06E04748C078362802D194
:1019A0007DA002F0C9FC10BD10B588B004463C48CB
:1019B00001F004F90121042002F056FB0121C804C2
:1019C00002F09BFB4FF44060059002208DF8180058
:1019D0008DF8190000208DF81A0001208DF81B00E9
:1019E00005A9734801F026F808220B21704801F080
:1019F000ACF808220A216E4801F0A7F801940020F3
:101A0000ADF80800ADF80A00ADF80C00ADF8100014
:101A10000C20ADF80E0001A9214801F036F9012291
:101A200040F225511E4801F06EFA01211C4801F0D8
:101A3000B4F934208DF81C0002208DF81D008DF8BB
:101A40001E0001208DF81F0007A800F002FF0020F3
:101A50001649088008B010BD0FB438B505A800902D
:101A60005448009A049902F055FC00200090514817
:101A700002F05CFD85B200240DE000BF4021084863
:101A800001F066FA0028F9D04A48015D044801F0E7
:101A9000AFF9601C84B2AC42EFDB38BC5DF814FBDC
:101AA000004C0040004800401201002010010020BE
:101AB00000140040680700200804002040546578A6
:101AC00074546F53706565636823C4FABAC3CED289
:101AD000BDD0D0A1C3C0A3ACBADCB8DFD0CBC8CFD7
:101AE000CAB6C4E3240000004054657874546F53B0
:101AF000706565636823D4DACED2D7F3CAD6B1DF76
:101B0000CAC7D6DAB4B4BFD5BCE4A3ACD4DACED25B
:101B1000D3D2CAD6B1DFCAC7B0ECB9ABCAD224009F
:101B20004054657874546F53706565636823C7EBE0
:101B3000C8C3D2BBCFC2BFC9D2D4C2F024000000F8
:101B40004054657874546F53706565636823B2DEE2
:101B5000CBF9D5E2B1DFD7DFB5BDB5D7BECDBFC9B3
:101B6000D2D4BFB4B5BDC1CB2400000040546578C9
:101B700074546F53706565636823CFD6D4DAC7EBAE
:101B8000CCFDCED2C3C7B9A4D7F7C8CBD4B1BDE979
:101B9000C9DCB0C9240000004054657874546F5308
:101BA000706565636823D0BBD0BBBFE4BDB12400C2
:101BB00000080240D805002030B58BB004460D4621
:101BC0000121802002F099FA0121202002F04CFA34
:101BD000092208215F4800F0B8FF4FF48070099097
:101BE00002208DF8280003208DF8290000208DF8B0
:101BF0002A0001208DF82B0009A9564800F01AFF91
:101C0000A8B2ADF818000020ADF81A000794ADF89E
:101C1000200006A9504801F0A8FA6020ADF80400A1
:101C20000120ADF806000020ADF8100001A94A48D7
:101C300001F030FB0821484801F0B9FC0121464879
:101C400001F0FEFA0121444801F018FB0BB030BD51
:101C500030B58BB004460D460121022002F04DFA4A
:101C60000121084602F000FA022207213B4800F059
:101C70006CFF8020099002208DF8280003208DF849
:101C8000290000208DF82A0001208DF82B0009A9D9
:101C9000324800F0CFFEA8B2ADF818000020ADF831
:101CA0001A000794ADF8200006A92D4801F05DFA4E
:101CB0006020ADF804000120ADF806000020ADF86A
:101CC000100001A9264801F01EFB0821244801F05C
:101CD00077FC0121224801F0B3FA0121204801F0EC
:101CE000CDFA0BB030BD1FB50121212002F0BCF9A7
:101CF0004FF4C060029001208DF80C0000208DF898
:101D00000E0003208DF80D0001208DF80F0002A9B0
:101D1000104800F08FFE4FF4C0610E4800F006FF3F
:101D20004FF4A070009001208DF8040000208DF881
:101D3000060003208DF8050001208DF80700694694
:101D4000064800F077FE4FF4A071044800F0EEFE64
:101D50001FBD000000140240001C004000000240B3
:101D600000040040024600210AE0354850F83100E6
:101D7000904204D1324800EBC10040687047491CD2
:101D80000729F2DB4FF0FF30F8E710B502460B46AB
:101D9000002100BF14E001EB41002A4C54F8200060
:101DA00090420CD101EB410004EB80004068984266
:101DB00005D101EB410004EB8000806810BD491C97
:101DC0000629E8DB0020F9E7F0B502460B460021C2
:101DD00018E01D4850F821004FF47A7690FBF6F594
:101DE000194850F8210090FBF6F706FB17049542BE
:101DF00001D19C4203D0944203D19D4201D10120E4
:101E0000F0BD491C0629E4DB0020F9E7002014E0BE
:101E100000210FE000EB80020C4B03EB820252F832
:101E2000212032B10A4A52F82020521C084B43F8B4
:101E30002020491C0529EDDB401C0528E8DB704704
:101E40007C010020B4010020FC01002018010020CA
:101E5000F8080020014600BF704700BF684A12889A
:101E600002F04002002AF9D0C2B2654B1B1D1A8055
:101E7000704710B588B004460121042002F0F4F840
:101E80000121202002F04AF9082206215D4800F0D5
:101E90005CFE082207215B4800F057FEC020069038
:101EA00002208DF81C008DF81D0000208DF81E000A
:101EB00001208DF81F0006A9524800F0BBFD0294D6
:101EC0000020ADF80C00ADF80E00ADF81000ADF834
:101ED00014000C20ADF8120002A9494800F0D5FE0C
:101EE0000121474800F059FF012240F225514448A2
:101EF00001F009F847208DF8040001208DF8050055
:101F00008DF806008DF8070001A800F0A2FC08B0CB
:101F100010BD10B555213A4800F06AFF10BD10B54C
:101F2000FFF7F7FF40F22551354801F027F8E0B1FF
:101F3000334800F061FF3449344A12788854202134
:101F40002F4801F012F831480078401C2F490870E2
:101F500008460078022808D1002008702A484178F5
:101F6000007801EB00202A49086010BD10B540F24E
:101F70002551234801F002F878B340F2255120485A
:101F800001F037F81E4800F037FF1F491F4A12784A
:101F9000885420211A4800F0E8FF1C480078401CB3
:101FA0001A4908701B480078401C1A4908701748E5
:101FB0000078022815D10020144908701248417891
:101FC000007801EB00201249086008460068B0F56F
:101FD000967F03DC00200F49087002E001200D49C4
:101FE000087010BD10B501210B4801F076FD28B135
:101FF0000121094801F082FDFFF78BFF10BD0000B1
:1020000000140140000802400C09002020020020BA
:102010001C0200201A020020000C004010B52DED1B
:102020000C8B0020FE490870FE490860FE490860DC
:10203000FE490860FE490860FE490860FE490860E4
:10204000FE48008800F4004000287CD0FC4800785E
:10205000782878D104E0F2480078401CF0490870F4
:10206000F748EF490978405C7928F4D1F4480078C2
:10207000F3494978884203D10220F249086002E01E
:102080000120F0490860E6480078EF4908703AE01E
:10209000E3490978EC4A1278881A04F038FE41ECDA
:1020A0001D0BB0EE4D1AF0EE6D1A9FEDE80B03F02C
:1020B0004BFCB0EE40BAF0EE60BAE3490978491E35
:1020C000DF4A515CA1F1300004F021FE41EC1C0B11
:1020D00053EC1B2B04F06EFE41EC190BD148006849
:1020E00004F015FE41EC1A0B53EC192B04F0CCFB59
:1020F00041EC180B04F0DCFDCA490860D2480078B6
:10210000401ED1490870D0480078CE4909688842FD
:10211000BEDCC3480078401CC149087008460078FE
:10212000CC49087004E0BE480078401CBC490870E7
:10213000C348BB490978405C7A28F4D1B848007894
:10214000C14908703BE0B4E0B5490978BE4A12784D
:10215000881A04F0DCFD41EC1D0BB0EE4D1AF0EED8
:102160006D1A9FEDBA0B03F0EFFBB0EE40BAF0EE44
:1021700060BAB5490978491EB14A515CA1F13000F5
:1021800004F0C5FD41EC1C0B53EC1B2B04F012FEBC
:1021900041EC190BA448006804F0B9FD41EC1A0B9E
:1021A00053EC192B04F070FB41EC180B04F080FD8C
:1021B0009D490860A4480078401EA3490870A248C1
:1021C0000078A44909788842BEDC95480078401C14
:1021D00093490870084600789E49087004E09048CA
:1021E0000078401C8E49087095488D490978405CFC
:1021F0006528F4D18A480078934908703AE0884904
:102200000978914A1278881A04F081FD41EC1D0B7F
:10221000B0EE4D1AF0EE6D1A9FED8C0B03F094FBAF
:10222000B0EE40BAF0EE60BA87490978491E844A98
:10223000515CA1F1300004F06AFD41EC1C0B53EC41
:102240001B2B04F0B7FD41EC190B7848006804F033
:102250005EFD41EC1A0B53EC192B04F015FB41EC1D
:10226000180B04F025FD7149086077480078401E7E
:102270007549087074480078764909788842BEDC50
:1022800000206E4908807448006820B165480068E5
:1022900008B1FEF71BFB71480068002808D06248AF
:1022A000006818B9614800680028F7D0FEF739FDCA
:1022B00057E16248008800F400400028F8D06048E8
:1022C00000787A28F4D104E055480078401C54493D
:1022D00008705B4852490978405C7928F4D1584825
:1022E000007857494978884203D10220554908604F
:1022F00002E00120534908604948007852490870BB
:102300003AE047490978504A1278881A04F0FFFCED
:1023100041EC1D0BB0EE4D1AF0EE6D1A9FED4B0B1C
:1023200003F012FBB0EE40BAF0EE60BA464909780D
:10233000491E434A515CA1F1300004F0E8FC41EC35
:102340001C0B53EC1B2B04F035FD41EC190B3848EA
:10235000006804F0DCFC41EC1A0B53EC192B04F080
:1023600093FA41EC180B04F0A3FC3149086036489D
:102370000078401E344908703348007831490968B4
:102380008842BEDC26480078401C25490870084673
:1023900000783049087004E021480078401C20494A
:1023A000087027481E490978405C7328F4D11C48FE
:1023B0000078254908705CE019490978224A1278AA
:1023C000881A04F0A4FC41EC1D0BB0EE4D1AF0EE9F
:1023D0006D1A9FED1E0B03F0B7FAB0EE40BAF0EEA7
:1023E00060BA19490978491E154A515CA1F13000BB
:1023F00004F08DFC41EC1C0B53EC1B2B04F0DAFCBD
:1024000041EC190B0B48006804F081FC41EC1A0BFD
:1024100053EC192B04F038FA41EC180B20E00000C3
:1024200034000020380000203C0000204000002044
:102430002402002028020020DC00002038020020B6
:102440009C0A00203002002035000020000000001F
:1024500000002440440000204C00002058000020D0
:1024600004F026FC9949086099480078401E984974
:102470000870974800789749097888429CDC96480C
:102480000078801C944908700846007893490870C9
:1024900004E091480078401C8F49087090488E49AC
:1024A0000978405C6528F4D18B4800788849087029
:1024B0003AE089490978864A1278881A04F027FC9C
:1024C00041EC1D0BB0EE4D1AF0EE6D1A1FED210B15
:1024D00003F03AFAB0EE40BAF0EE60BA7C490978FF
:1024E000491E7F4A515CA1F1300004F010FC41EC20
:1024F0001C0B53EC1B2B04F05DFC41EC190B7948D1
:10250000006804F004FC41EC1A0B53EC192B04F0A6
:10251000BBF941EC180B04F0CBFB724908606C4826
:102520000078401E6A490870694800786B4909784C
:102530008842BEDC69480078401E6949085C2D2845
:1025400004D1684800684042664908600020664936
:1025500008800120654908606548006808B1FEF7F9
:102560004AFABDEC0C8B10BD014600BF704700BF9E
:10257000604A128802F04002002AF9D0C2B25D4BD4
:102580009A80704710B588B004460121084601F0D2
:102590006BFD0121102001F0C1FD072209215648E1
:1025A00000F0D3FA07220A21534800F0CEFA4FF484
:1025B000C060069002208DF81C008DF81D000020E0
:1025C0008DF81E0001208DF81F0006A94A4800F072
:1025D00031FA02940020ADF80C00ADF80E00ADF811
:1025E0001000ADF814000C20ADF8120002A941480B
:1025F00000F04BFB01213F4800F0CFFB012240F2ED
:1026000025513C4800F07FFC25208DF80400032074
:102610008DF805008DF8060001208DF8070001A84F
:1026200000F017F908B010BD10B540F2255131483F
:1026300000F0A4FC002847D02E4800F0DDFBC4B217
:102640002948008800F4004058BB2748008800F45F
:10265000804060B10A2C03D000202349088020E08C
:102660002148008840F400401F49088019E00D2CE3
:1026700006D11D48008840F480401B49088010E0C6
:1026800019480088C0F30D0015490C5416480088FD
:10269000401C1549088008460088C72801DD002035
:1026A000088016480078012801D1FFF7B7FC1348CD
:1026B000007848B9DFED120A9FED110AFEF75BF8CA
:1026C0004FF4967000F080F810BD00002802002042
:1026D0003500002044000020340000202C0200209F
:1026E0009C0A0020DC00002038020020540000205A
:1026F0005000002000100140000002401A0200209B
:102700000000000010B504466FF0040000F0EEF881
:10271000E11704EB5171C1F3C701394A117010463A
:10272000007800EB4001C1EBC0104FF6FF7101EAE9
:10273000C0003449088010BD0146314A12784A432E
:102740004FF0E0235A6100229A611A46126942F062
:1027500001021A6100BF4FF0E022106900F001028F
:102760001AB100F48032002AF5D04FF0E02212694D
:1027700022F001024FF0E0231A6100229A617047B3
:102780000146204A12884A434FF0E0235A61002252
:102790009A611A46126942F001021A6100BF4FF0B5
:1027A000E022106900F001021AB100F48032002A20
:1027B000F5D04FF0E022126922F001024FF0E02341
:1027C0001A6100229A61704770B504464FF4077091
:1027D00094FBF0F0C6B24FF4077094FBF0F100FBED
:1027E000114085B205E04FF40770FFF7C9FF701E76
:1027F000C6B2002EF7D115B12846FFF7C1FF70BD54
:102800003A0200203C02002009488047094800475E
:10281000FEE7FEE7FEE7FEE7FEE7FEE7FEE7FEE790
:10282000FEE7FEE704480549054A064B70470000ED
:102830002506000889010008C80B0020C8110020E7
:10284000C80D0020C80D002032490143324A1160F2
:10285000704770B5002100230F22C4781CB32E4CA2
:10286000246804F4E064C4F5E064C4F30721C1F112
:102870000404E3B20A4144789C40E1B284781440F5
:1028800021430C07210E254C05786155047804F08E
:102890001F050124AC4005786D11AD0005F1E02560
:1028A000C5F8004109E0047804F01F050124AC409C
:1028B0001B4D0678761145F8264070BD194A0A402E
:1028C0000243154B1B1F1A60704739B1124A121D83
:1028D00012680243104B1B1D1A6006E00E4A121DBF
:1028E000126882430C4B1B1D1A607047042808D1E4
:1028F0004FF0E021096941F004014FF0E02211613D
:1029000007E04FF0E021096921F004014FF0E022D7
:10291000116170470000FA050CED00E000E400E0F2
:1029200080E100E080FFFF1F10B504469848844214
:1029300008D10121084601F002FC0021012001F02C
:10294000FEFB76E09348844208D10121022001F089
:10295000F6FB0021022001F0F2FB6AE08E4884427F
:1029600008D10121042001F0EAFB0021042001F03C
:10297000E6FB5EE08948844208D10121082001F08D
:10298000DEFB0021082001F0DAFB52E0844884429B
:1029900008D10121102001F0D2FB0021102001F00C
:1029A000CEFB46E07F48844208D10121202001F07F
:1029B000C6FB0021202001F0C2FB3AE07A488442A5
:1029C00008D10121402001F0BAFB0021402001F094
:1029D000B6FB2EE07548844208D10121802001F029
:1029E000AEFB0021802001F0AAFB22E07048844267
:1029F00008D10121801501F0A2FB0021A01501F0F2
:102A00009EFB16E06B48844208D10121401501F07D
:102A100096FB0021601501F092FB0AE066488442B3
:102A200007D10121001501F08AFB0021201501F0DA
:102A300086FB10BDF0B50A4600210023002400BF2C
:102A40003DE0012505FA01F3156805EA03049C42FF
:102A500034D105684F000326BE40B54305601579A3
:102A60004E00B5400668354305601579012D02D04A
:102A70001579022D16D185684F000326BE40B54357
:102A8000856055794E00B540866835438560456858
:102A900001268E40B5434560456896798E40B6B2B2
:102AA00035434560C5684F000326BE40B543C56049
:102AB000D5794E00B540C6683543C560491C10291C
:102AC000BFD3F0BD4FF6FF7101600021017141716C
:102AD0008171C171704708B54FF480320092009A3D
:102AE0000A430092009AC261C161009AC261C26940
:102AF0000092C269009208BD0246002013690B4093
:102B00000BB1012000E0002070470146086980B247
:102B100070470246002053690B400BB1012000E0D2
:102B2000002070470146486980B2704701837047B2
:102B3000418370470AB1018300E0418370474161DE
:102B4000704742694A4042617047F0B50023002453
:102B50004D07ED0E02FA05F3CE1000F1200555F8F1
:102B600026504E07F70E0F26BE40B543CF1000F19A
:102B7000200646F82750CE1000F1200555F82650C3
:102B800045EA0304CE1000F1200545F82640F0BDCB
:102B9000000002400004024000080240000C024015
:102BA000001002400014024000180240001C0240C5
:102BB00000200240002402400028024010B50446D4
:102BC000FA48844208D10121102001F0FCFA0021CA
:102BD000102001F0F8FA57E0F548844209D10121AC
:102BE000480401F0DFFA00214FF4003001F0DAFA76
:102BF0004AE0F048844209D10121880401F0D2FA68
:102C000000214FF4802001F0CDFA3DE0EA488442F3
:102C100009D10121C80401F0C5FA00214FF40020B8
:102C200001F0C0FA30E0E548844209D101210805ED
:102C300001F0B8FA00214FF4801001F0B3FA23E05C
:102C4000DF48844208D10121202001F0BCFA002194
:102C5000202001F0B8FA17E0DA48844209D10121B6
:102C6000880701F09FFA00214FF0804001F09AFAA6
:102C70000AE0D548844207D10121400501F092FACB
:102C80000021600501F08EFA10BD2DE9FF470546D1
:102C90000E460024A14600BFA046B08900B100BF87
:102CA0002C8A24F44054F08804432C82AC8941F2ED
:102CB0000C608443B0883189084371890843044318
:102CC000AC81AC8A24F44074B0890443AC82684679
:102CD00001F0F9F8B548854202D0B948854202D1E1
:102CE000DDF80C9001E0DDF80890A88900F40040C0
:102CF00040B109EBC90000EB091031684900B0FB95
:102D0000F1F707E009EBC90000EB09103168890011
:102D1000B0FBF1F76420B7FBF0F004012009642157
:102D200001FB1078A88900F4004040B1322000EB8C
:102D3000C800B0FBF1F000F00700044308E03220C7
:102D400000EB08106421B0FBF1F000F00F00044329
:102D50002C81BDE8FF874FF416510160002181806E
:102D6000C18001810C21418100218181704710B512
:102D700002460020108A20F470600B884C882343A0
:102D80008C882343CC8823431843108210BD002134
:102D9000018041808180C180704721B1828942F4E5
:102DA0000052828104E082894DF6FF731A408281CD
:102DB0007047028B02F47F420283028B0A43028334
:102DC000704721B1828942F40042828103E0828906
:102DD000C2F30E028281704721B1828A42F40062FE
:102DE000828204E0828A4FF2FF731A408282704727
:102DF000C1F308028280704701468888C0F308004A
:102E00007047028A4FF6F0731A400282028A0A4320
:102E10000282704721B1828942F00202828104E07D
:102E200082894FF6FD731A408281704782894FF282
:102E3000FF731A40828182890A4382817047028A25
:102E40004FF6DF731A400282028A0A4302827047F9
:102E500021B1028A42F48042028204E0028A4BF6E7
:102E6000FF731A4002827047818941F0010181811C
:102E7000704721B1828A42F00802828204E0828A8D
:102E80004FF6F7731A4082827047028BD2B20283E8
:102E9000028B42EA01220283704721B1828A42F00A
:102EA0002002828204E0828A4FF6DF731A40828217
:102EB000704721B1828A42F01002828204E0828A45
:102EC0004FF6EF731A4082827047828A4FF6FB7387
:102ED0001A408282828A0A438282704721B1828AA2
:102EE00042F00202828204E0828A4FF6FD731A40A9
:102EF000828270471AB1838A0B43838202E0838AFD
:102F00008B4383827047F0B50346002400260025DA
:102F1000002040F66A17B94200D100BF1846C1F33D
:102F2000421401F01F06012707FA06F5012C01D112
:102F30000C3004E0022C01D1103000E014301AB142
:102F400007682F43076002E00768AF430760F0BDE2
:102F500002460020B1F5007F00D100BF13880B406E
:102F60000BB1012000E00020704701F40072B2F5BF
:102F7000007F00D100BFCA430280704770B502468F
:102F8000002400230025002040F66A16B14200D13B
:102F900000BFC1F3421501F01F03012606FA03F337
:102FA000012D13D19689334017E000000010014035
:102FB0000044004000480040004C004000500040E9
:102FC0000014014000780040007C0040022D02D136
:102FD000168A334001E0968A33400C12012606FA25
:102FE00004F41688344013B10CB1012000E0002035
:102FF00070BD10B50022002340F66A14A14200D132
:1030000000BF0A1201249440A3B2DC43048010BD27
:1030100010B50446FE48844208D10121084601F05B
:10302000D2F80021012001F0CEF89DE0B4F1804FEC
:1030300008D10121084601F0B5F80021012001F076
:10304000B1F891E0F348844208D10121022001F057
:10305000A9F80021022001F0A5F885E0EE4884429D
:1030600008D10121042001F09DF80021042001F085
:1030700099F879E0E948844208D10121082001F05B
:1030800091F80021082001F08DF86DE0E4488442B9
:1030900008D10121102001F085F80021102001F055
:1030A00081F861E0DF48844208D10121202001F04D
:1030B00079F80021202001F075F855E0DA488442C3
:1030C00008D10121022001F07EF80021022001F048
:1030D0007AF849E0D548844209D10121080401F079
:1030E00072F800214FF4803001F06DF83CE0D048D8
:1030F000844209D10121480401F065F800214FF410
:10310000003001F060F82FE0CA48844209D1012163
:10311000880401F058F800214FF4802001F053F8A2
:1031200022E0C548844208D10121402001F03AF84C
:103130000021402001F036F816E0C048844208D152
:103140000121802001F02EF80021802001F02AF8D2
:103150000AE0BB48844207D10121801501F022F822
:103160000021A01501F01EF810BD00220288A84B16
:1031700098420ED0AC4B98420BD0B0F1804F08D0A3
:10318000A44B984205D0A44B984202D0A34B98423E
:1031900004D14FF68F731A404B881A43A04B9842C4
:1031A00007D0A04B984204D04FF6FF431A400B893A
:1031B0001A4302804B68C3620B880385944B984284
:1031C00002D0994B984201D18B7A038601238382E6
:1031D00070474FF0FF314160002101800181418043
:1031E000817270470185828270470A4600210188FA
:1031F0004FF68F7319401143018070474162704749
:10320000C16270470146486A70470146088D7047A1
:1032100021B1028842F00202028004E002884FF6E7
:10322000FD731A400280704721B1028842F0040207
:10323000028004E002884FF6FB731A400280704758
:1032400021B1028842F08002028004E002884FF639
:103250007F731A400280704702884FF6F7731A4056
:10326000028002880A430280704702884FF6FF43BB
:103270001A40028002880A430280704721B1028806
:1032800042F00102028004E002884FF6FE731A4009
:103290000280704770B5002400220023058C4FF691
:1032A000FE7635400584028C8388048B4FF68F753B
:1032B0002C40B51E2C400D882C43751E2A408D894C
:1032C0002A434D882A43524DA84202D0564DA84267
:1032D00013D14FF6F7752A40CD892A434FF6FB7577
:1032E0002A408D882A434FF6FF652B404FF6FF5545
:1032F0002B400D8A2B434D8A2B43838004838D689A
:103300004563028470BD70B5002400220023058C43
:103310004FF6EF7635400584028C8388048B48F69F
:10332000FF752C404FF6FF452C400D884FF6FF7679
:1033300006EA05252C434FF6DF752A408D8906EAFB
:1033400005152A434D8806EA05152A43304DA84243
:1033500002D0354DA8421DD14FF67F752A40CD8948
:103360004FF6FF7606EA05152A434FF6BF752A4049
:103370008D8806EA05152A434FF6FF352B404FF29C
:10338000FF752B400D8A06EA85052B434D8A06EA18
:1033900085052B43838004838D688563028470BD1B
:1033A00070B5002400220023058C4FF6FF663540DF
:1033B0000584028C8388848B4FF68F752C404FF6E2
:1033C000FC752C400D882C434FF6FF552A408D8903
:1033D0004FF6FF7606EA05252A434D8806EA0525BD
:1033E0002A430B4DA84202D00F4DA84238D14FF2CC
:1033F000FF752A40CD894FF6FF7606EA05252A4358
:103400004FF6FF352A408D8806EA05252A4319E044
:10341000000001400004004000080040000C004093
:103420000010004000140040000401400040014032
:10343000004401400048014000180040001C0040CA
:10344000002000404EF6FF752B404DF6FF752B40D7
:103450000D8A06EA05152B434D8A06EA05152B430E
:10346000838084838D68C563028470BD70B500223B
:1034700000230024058C4EF6FF7635400584038C2E
:103480008488828B48F6FF752A404FF6FF452A4014
:103490000D884FF6FF7606EA05252A434DF6FF759F
:1034A0002B408D8906EA05352B434D8806EA053504
:1034B0002B43FE4DA84202D0FD4DA84208D14BF649
:1034C000FF752C400D8A4FF6FF7606EA85152C43D2
:1034D000848082838D680564038470BD002101802F
:1034E0004180818081608181C181018241827047F8
:1034F00070B50346002000241846183001258D4081
:10350000ACB21D8CA5431D8409B108290AD100EB7A
:10351000610005684FF68F763540056005681543F4
:1035200005600FE00D1FC5F34E052844056848F6F9
:10353000FF763540056005684FF6FF7606EA0226FD
:103540003543056070BD4163704781637047C16357
:103550007047016470470A460021018B4FF68F7354
:1035600019401143018370470A460021018B48F638
:10357000FF7319404FF6FF7303EA022319430183D7
:1035800070470A460021818B4FF68F731940114313
:10359000818370470A460021818B48F6FF731940EA
:1035A0004FF6FF7303EA02231943818370470A46EB
:1035B0000021018B4FF6F7731940114301837047C7
:1035C0000A460021018B4FF2FF7319404FF6FF733B
:1035D00003EA02231943018370470A460021818BC5
:1035E0004FF6F77319401143818370470A46002153
:1035F000818B4FF2FF7319404FF6FF7303EA0223EA
:103600001943818370470A460021018B4FF6FB73F3
:1036100019401143018370470A460021018B4FF680
:10362000FF3319404FF6FF7303EA02231943018366
:1036300070470A460021818B4FF6FB7319401143F6
:10364000818370470A460021818B4FF6FF33194072
:103650004FF6FF7303EA02231943818370470A463A
:103660000021018B4FF67F7319401143018370478E
:103670000A460021018BC1F30E014FF6FF7303EAE6
:1036800002231943018370470A460021818B4FF6BC
:103690007F7319401143818370470A460021818B53
:1036A000C1F30E014FF6FF7303EA0223194381832E
:1036B00070470A460021018C4FF6FD7319401143F3
:1036C000018470470A460021018C4FF6F7731940B8
:1036D0001143018470470A460021018C4FF6DF73C5
:1036E00019404FF6FF7303EA021319430184704730
:1036F0000A460021018C4FF67F7319404FF6FF7385
:1037000003EA02131943018470470A460021018C21
:103710004FF6FF5319404FF6FF7303EA0223194394
:10372000018470470A460021018C4FF2FF73194053
:103730004FF6FF7303EA02231943018470470A46D8
:103740000021018C4DF6FF7319404FF6FF7303EA19
:10375000023319430184704730B5002301248C40A3
:10376000A3B2048C9C430484048C02FA01F5ADB22C
:103770002C43048430BD30B5002304248C40A3B214
:10378000048C9C430484048C02FA01F5ADB22C43F2
:10379000048430BD828B4FF2FF331A408283828BC8
:1037A0004FF6FF7303EA01231A4382837047F0B593
:1037B0000C461546002100220026078C4EF6FF7CA1
:1037C00007EA0C070784818B028C4FF6FF7707EA24
:1037D000043640F6FF4739404FF6FF7707EA0527E2
:1037E00039434FF6FF7707EA0337394345F6FF774A
:1037F0003A4046F480573A4381830284F0BD828B7D
:103800004FF6F3731A408283828B0A438283704798
:10381000F0B50C461546002100220026078C4FF615
:10382000FF6C07EA0C070784818B028C4FF6FF7749
:1038300007EA04264FF60C7739404FF6FF7707EA80
:1038400003172F4339434FF2FF573A4046F480772E
:103850003A4381830284F0BD028B4FF2FF331A405A
:103860000283028B4FF6FF7303EA01231A4302839C
:103870007047F0B50C461546002100220026078C43
:103880004FF6EF7C07EA0C070784018B028C4FF69A
:10389000FF7707EA041640F6FF4739404FF6FF77F7
:1038A00007EA033739434FF6FF7703E00000014092
:1038B0000004014007EA052739434FF65F773A4095
:1038C00046F010073A4301830284F0BD028B4FF6A5
:1038D000F3731A400283028B0A4302837047F0B5E8
:1038E0000C46154600210022068C4FF6FE773E401E
:1038F0000684018B028C4FF60C7631407E1C06EA62
:1039000003162E4331434FF6F576324044F001065C
:10391000324301830284F0BD70B505460C46208811
:1039200050B92389A28861882846FFF7D8FFE1882B
:103930002846FFF7CBFF25E0208804280AD12389F9
:10394000A28861882846FFF794FFE1882846FFF7A0
:1039500083FF17E0208808280AD12389A28861887C
:103960002846FFF755FFE1882846FFF748FF09E0A2
:103970002389A28861882846FFF719FFE188284635
:10398000FFF708FF70BD0021018041800121818087
:103990000021C180018170472DE9F04105460C46A8
:1039A00000260127608808B9022600E00026A088CA
:1039B000012801D1022700E001272088A0B923892E
:1039C000A28861882846FFF78AFFE1882846FFF72A
:1039D0007DFF23893A4631462846FFF74AFFE188B2
:1039E0002846FFF739FF13E02389A288618828461B
:1039F000FFF73FFFE1882846FFF72EFF23893A466D
:103A000031462846FFF76BFFE1882846FFF75EFF47
:103A1000BDE8F0810146486B70470146886B7047EE
:103A20000146C86B70470146086C70470A884B888E
:103A30001A438B881A43CB881A430B891A434B8944
:103A40001A438B891A43A0F8442070470021018053
:103A500041808180C180018141818181704731B184
:103A6000B0F8442042F40042A0F8442005E0B0F849
:103A70004420C2F30E02A0F84420704721B182888E
:103A800042F00402828004E082884FF6FB731A4001
:103A90008280704721B1828842F00102828004E076
:103AA00082884FF6FE731A40828070471AB183896C
:103AB0000B43838102E083898B438381704781823A
:103AC000704702460020138A0B400BB1012000E032
:103AD00000207047CA430282704730B5024600207A
:103AE00000230024158A05EA0103958905EA0104EB
:103AF00013B10CB1012000E0002030BDCA430282A6
:103B0000704741EA0203A0F8483070471AB1838930
:103B10000B43838102E083898B438381704721B10A
:103B2000828842F00802828004E082884FF6F773B0
:103B30001A408280704701894FF6F8721140018166
:103B400070470A46002101894FF68F7319401143CF
:103B50000181704730B504460D4629462046FFF7DF
:103B6000F0FF208940F00700208130BD2DE9F041B1
:103B700004460D4616461F46602D06D13B460122DF
:103B800031462046FFF775FE05E03B4601223146EF
:103B90002046FFF7A4FE29462046FFF7D2FF2089E2
:103BA00040F007002081BDE8F08130B50C460021CF
:103BB0000189C9B24FF6FF7505EA03251543254370
:103BC0002943018130BD2DE9F04105460E461746D7
:103BD0009846002443463A4631462846FFF7E5FF1B
:103BE0002C894FF6F870044044F007044FF68F70AC
:103BF000044044F070042C81BDE8F081F0B5044627
:103C00000D4616461F463B46324629462046FFF7DC
:103C1000CCFF208940F480402081F0BD82884FF69F
:103C20008F731A40828082880A438280704702899B
:103C30004FF6F8731A40028102890A4302817047E5
:103C400002894FF67F731A40028102890A4302817A
:103C50007047F0B50C4615461E4600210022002391
:103C60000189028B038C4FF6F877394021434FF6D8
:103C7000FC473A4040F201173A434FF6DD773B40AC
:103C80004FF6FF7707EA06172F433B430181028374
:103C90000384F0BD21B1828842F08002828004E07A
:103CA00082884FF67F731A4082807047A0F85010C8
:103CB00070470000F948006840F00100F7490860CB
:103CC0000020F64908310860F4480068F4490840CB
:103CD000F2490860F348091D0860F348EF49843150
:103CE0000860F0481038091D0860EC48006820F4AE
:103CF0008020EA4908600020E8490C310860E74963
:103D00008C31086070470021E44A921C1170114602
:103D10000870704710B501460022002300204A11A8
:103D2000012A02D1DD4C236808E0022A03D1DB4CD2
:103D30007034236802E0D94C7434236801F01F0208
:103D4000012494401C400CB1012000E0002010BD73
:103D500038B5002000900024002500BF3120FFF777
:103D6000D9FF05460098401C00900098B0F5A04F80
:103D700001D0002DF2D03120FFF7CCFF08B1012493
:103D800000E00024204638BD01460020C34A1068E8
:103D900020F0F80040EAC10010607047C349086095
:103DA00070470021BD4A703211701170012802D095
:103DB00004280AD104E00121B84A7032117005E0EC
:103DC0000521B64A7032117000E000BF00BF704795
:103DD000B7490860704770B5049C41EA8215012616
:103DE000C6EB530645EA0645054345EA0465AB4E76
:103DF000361D356070BDAD4908667047820142EAE4
:103E00000172A64B84331A607047A84988667047D0
:103E100010B5830143EA016343EA02739F4C88347F
:103E2000236010BDA14908677047A049C864704766
:103E300002460020994B0833186820F0EC6042EAF3
:103E400001031843954B0833186070470246002061
:103E5000924B0833186820F0784042EA0103184377
:103E60008E4B083318607047014600208B4A083299
:103E7000106820F00300084310607047874808303E
:103E8000006800F00C00704701460020834A0832A9
:103E9000106820F0F00008431060704701460020D1
:103EA0007E4A0832106820F4E050084310607047E2
:103EB00001460020794A0832106820F4604040EA48
:103EC000C10010607047F0B50021002200240225D7
:103ED00000260223714F08373F6807F00C0121B11B
:103EE000042905D0082937D105E0724F076036E074
:103EF000714F076033E0694F3F1D3F68C7F380563D
:103F0000664F3F1D3F6807F03F036EB16A4FB7FB36
:103F1000F3F7DFF888C10CF1040CDCF800C0CCF337
:103F2000881C07FB0CF40CE0624FB7FBF3F7DFF8DB
:103F30006CC10CF1040CDCF800C0CCF3881C07FB4E
:103F40000CF4564F3F1D3F68C7F301477F1C7D00AF
:103F5000B4FBF5F7076002E0564F076000BF00BFF3
:103F60004E4F08373F6807F0F0010909534F7A5C5C
:103F70000768D7404760494F08373F6807F4E0516A
:103F8000890A4E4F7A5C4768D7408760434F0837AD
:103F90003F6807F46041490B484F7A5C4768D74057
:103FA000C760F0BD002100F44072B2F5407F0AD135
:103FB0003A4A0832116821F4F811414A024011438B
:103FC000364A08321160354A70321268C0F30B036A
:103FD0001A43324B70331A607047354944390860D0
:103FE0007047334940390860704736490860704768
:103FF00001460020294A8C32106820F01F004A1E1A
:104000001043264A8C321060704701460020234A34
:104010008C32106820F4F8504A1E40EA02201F4AF1
:104020008C3210607047014600201C4A8C321068A8
:1040300020F4401008431060704701460020174AE2
:104040008C32106820F4400008431060704701462D
:104050000020124A8C32106820F44030084310606F
:10406000704719490860704739B10C4A30321268FC
:1040700002430A4B30331A6006E0084A30321268B5
:104080008243064B30331A607047F9B1034A343229
:1040900012680243014B34331A601CE000380240BE
:1040A000FFFFF6EA103000240030002000004742F5
:1040B000800E47420024F40000127A003E020020E5
:1040C000FFFCFF0F5C014742E01147428F4A126834
:1040D00082438E4B1A60704739B18C4A121D1268A8
:1040E00002438A4B1B1D1A6006E0884A121D1268A3
:1040F0008243864B1B1D1A60704739B1834A0C32CC
:1041000012680243814B0C331A6006E07F4A0C327E
:10411000126882437D4B0C331A60704739B17B4A79
:10412000103212680243794B10331A6006E0774A66
:10413000103212688243754B10331A60704739B1E0
:10414000724A243A12680243704B243B1A6006E01C
:104150006E4A243A126882436C4B243B1A607047C3
:1041600039B16A4A203A12680243684B203B1A6010
:1041700006E0664A203A12688243644B203B1A608C
:10418000704739B1614A1C3A126802435F4B1C3BCD
:104190001A6006E05D4A1C3A126882435B4B1C3B86
:1041A0001A60704739B1594A143A12680243574BA2
:1041B000143B1A6006E0554A143A12688243534B86
:1041C000143B1A60704739B1504A103A12680243E2
:1041D0004E4B103B1A6006E04C4A103A126882437C
:1041E0004A4B103B1A60704739B1484A1C3212687A
:1041F0000243464B1C331A6006E0444A1C321268E4
:104200008243424B1C331A60704739B13F4A203217
:10421000126802433D4B20331A6006E03B4A2032CD
:1042200012688243394B20331A60704739B1374ADC
:10423000243212680243354B24331A6006E0334AB5
:10424000243212688243314B24331A60704739B1EB
:104250002E4A2C32126802432C4B2C331A6006E093
:104260002A4A2C3212688243284B2C331A6070473A
:1042700039B1264A303212680243244B30331A6077
:1042800006E0224A303212688243204B30331A60F3
:104290007047012808D11D493C31096841F00801E7
:1042A0001A4A3C32116007E018493C31096821F094
:1042B0000801164A3C321160704739B1134A273A57
:1042C00012780243114B273B1A7006E00F4A273A37
:1042D000127882430D4B273B1A7070470B484030D1
:1042E000006840F08070094940310860704701461D
:1042F0000020064A283A12680A400AB1012000E06C
:104300000020704701492639087070473438024050
:10431000704700001CB50C46064B7B446946009074
:10432000204600F0C0F904460020694600F0CEF9AE
:1043300020461CBDAF0300000FB4044910B503AA0A
:10434000029800F0DFF910BC5DF814FB3402002085
:1043500070B50C460546012A05D02878800600D5A0
:10436000EA69002302E0012305E05B1C934202D2CC
:10437000E05C0028F9D1A869E618C01AA861286A8B
:1043800018442862284600F0FFF804E0D5E901212E
:1043900014F8010B9047B442F8D3284600F00AF90C
:1043A00070BD00002DE9F05F894604464FF0000A19
:1043B000DFF874B1FB44C0F820A02046E1688847CC
:1043C000002874D0252806D0D4E901219047206A1E
:1043D000401C2062F1E700265F462046E1688847DE
:1043E0002028054607DB312D05D2781910F8200C5E
:1043F00008B10643F1E7B00701D526F00406C4F87A
:104400001CA00027C4F818A02A2D09D0284602F0C5
:1044100087F938B304EB8708303DC8F8185019E025
:1044200059F8041B204604EB87029161E168884734
:10443000012F054618D1E069002820DA26F0200671
:104440001DE0D8F8180000EB800005EB4000303884
:10445000C8F818002046E1688847054602F060F970
:104460000028EED1012F0AD02E2D08D12046E16878
:1044700088477F1C0546022F46F02006C4DBA06952
:10448000002803DA404246F00106A061F00701D09F
:1044900026F010066C2D0BD0682D09D04C2D39D08C
:1044A0006A2D35D0742D35D07A2D33D016E038E012
:1044B000E1682F4620468847B842054609D16C2F4F
:1044C00026D04FF48060E1680643204688470546C1
:1044D00004E06C2F1AD04FF4807006430DB3A5F1A1
:1044E0004100192802D8203546F400664A4629467C
:1044F000204626604E46FBF7A1FE80B101280BD076
:10450000F61D26F0070000F1080956E74020E4E711
:104510008020D8E70020D6E706F104094DE72846B9
:1045200052E7206ABDE8F09FD231000010B5431C6D
:1045300002E010F8011B71B18107FAD14FF001328E
:1045400002C88C1A8C4314EAC211F9D0C01A0A06A8
:1045500003D0C01E10BDC01A10BD0A0401D0801EB9
:1045600010BD0902FCD0401E10BD70477047704757
:10457000704710B500F0F6F9006810BD10B504469C
:1045800000F0F0F9046010BD70B50446856900685C
:10459000C10601D5302600E02026C00707D070BD37
:1045A000D4E9012130469047206A401C20626D1EEC
:1045B000F6D570BD70B5044685690078C00707D18F
:1045C00070BDD4E9012120209047206A401C206260
:1045D0006D1EF6D570BD09684A0501D540B2704719
:1045E000C905FCD500B2704709684A0501D5C0B2BB
:1045F0007047C905FCD580B2704700002DE9F04135
:104600000646002410687529314616A510D0FFF71C
:10461000E2FF002802DA404213A507E031688A076A
:1046200001D512A502E0490704D511A5012401E036
:10463000FFF7DAFF00210A2206F1240709E0B0FBA8
:10464000F2FCB0FBF2F302FB1C0030307854184649
:10465000491C0028F3D123462A463046BDE8F041E4
:1046600000F0C9B9000000002D0000002B00000080
:104670002000000011680268006A530501D5087027
:104680000AE0D30501D5088006E0130603D5C2175A
:10469000C1E9000200E008600120704701694A1C7E
:1046A00002610878704700B58FB0CDE90131002173
:1046B000059105497944CDE9031011466846FFF795
:1046C00071FE0FB000BD0000E5FFFFFF0A6802F8B1
:1046D000010B0A60704710B5436913B1AFF3008056
:1046E00001E0FFF735FE012010BD127800F1240132
:1046F0000A7000224A700122EDE711684FF0FF3284
:10470000E9E70000074B70B50D467B44FFF7CBFF90
:104710000446284600F0EBFB10B14FF0FF3070BDAF
:10472000204670BD61DEFFFF2DE9FF5F15468A461A
:104730000446DFF8AC80F8440027D8E900103E4674
:10474000CDE9001010E03AF816106A4602A800F011
:10475000D2FB411C07D02178890603D5E2693918BC
:1047600091420DD80744761C2078800602D5E06976
:10477000B84205DDAE42E6DB3AF816000028E2D189
:10478000A069C01BA0612046FFF7FEFED8E900101B
:10479000CDE90010002017E03AF818106A4602A888
:1047A00000F0A9FBB0F1FF3F81460BD000250DF1D1
:1047B000080B05E0D4E901211BF8050090476D1CAA
:1047C0004D45F7D308F10100B0428046E4DB206A92
:1047D000384420622046FFF7EDFEBDE8FF9F000051
:1047E000EE2E00002DE9F0418046D21D22F0070296
:1047F0000025D2E90002F52915A614D0011E72F198
:10480000000106DA0023D0EB030063EB020211A6DD
:1048100008E0D8F800108B0701D50FA602E0490781
:1048200001D50EA601251146002408F1240704E055
:1048300000F09CF830323A55641C50EA0102F7D17E
:104840002B46324621464046BDE8F04100F0D3B841
:10485000000000002D0000002B00000020000000E0
:1048600030B4002100F1240408E002F00705D2086A
:10487000303542EA4372DB086554491C52EA0305AD
:10488000F3D10468002310A2250708D504F0200402
:104890000C4304D0C46901230CA2641EC46130BC63
:1048A00000F0A9B810B5044621461068FFF79CFE39
:1048B00002462046BDE810400023D1E7D21D22F079
:1048C0000701D1E90023CBE7000000003000000021
:1048D000F0B40D460188090502D5214C7C4402E064
:1048E0001F4C7C440E34002100F1240608E002F045
:1048F0000F071209E75D42EA03721B097754491C4E
:1049000052EA0307F3D102780023120704D5702D71
:1049100006D009B1022311342246F0BC00F06BB876
:1049200001231034F8E770B504460D46214610689F
:10493000FFF75AFE024629462046BDE87040002394
:10494000C6E7D21D22F00703D3E90023C0E70368BE
:10495000126843F0200303600823C3610023B7E714
:10496000502D000000487047640B002030B5B0F1B6
:104970000A024FEA900E71F100034EEA817EB0EB1D
:104980000E0061EB91014FEA101E4EEA017E10EB22
:104990000E0041EB11114FEA102E4EEA016E10EBA2
:1049A0000E0041EB11214FEA104E4EEA014E10EB82
:1049B0000E0041EB1141401841F100014FEAD000D7
:1049C00040EA41704FEAD10110EB80054FEA8104C3
:1049D00044EA907444EB01046D1944EB0404521B47
:1049E000A3414FF0000348BF0A3200D530BD401C40
:1049F00041F1000130BD2DE9F0470D469946924640
:104A0000044600F124080168880604D5E06921F015
:104A10001001216000E00120A84201DD471B00E0F9
:104A20000027A1697A1902EB0900081AA061207811
:104A3000C00602D42046FFF7A7FD002608E0D4E90F
:104A400001211AF806009047206A401C761C20625B
:104A50004E45F4DB2078C0060AD52046FFF794FDCA
:104A600006E0D4E9012130209047206A401C2062F2
:104A7000381EA7F10107F4DC07E0D4E9012118F89A
:104A800005009047206A401C2062281EA5F1010500
:104A9000F3DC2046FFF78EFD2078000602D50220C9
:104AA000BDE8F0870120FBE770472DE9FF4F0C467A
:104AB0001E464FF0FF378BB0D2E90001DDF8608071
:104AC0000A908A46C1F30A5505B93D4600210846B9
:104AD0004FF00000BAF1000F00F4400005DA00EBDF
:104AE00080004FF4400101EA50004FEA9059B9F1BB
:104AF000010F00DDB9460A9850EA4A000ED044F68C
:104B00001050A5F2FF3545432F14B8F1000F1ED009
:104B10007542291E1EDDC9F100021CE0B8F1010F2B
:104B20004FF0000001D0302103E0F24305E02154B2
:104B3000401CB042FBDB30460022002121540B997F
:104B4000C1F80880C1E900200FB0BDE8F08FBD1B9F
:104B50006D1CDEE74A4600DA694206A800F062FAF8
:104B600006AB93E8070003AB83E8070050460A99B9
:104B700000F00CFB8DE80700A0F500501F380090F6
:104B80000398002D09DD42F21F014A46084403A99B
:104B90000390684600F06BFD08E0A0F500504A461F
:104BA0001F3803A90390684600F075FD8DE80700E3
:104BB0000004000C03D04FF0FF30410800E0104625
:104BC000B8F1000F03D00022009215461EE0751EBA
:104BD00005D4FFF7CBFE303262556D1EF9D5B346D2
:104BE0000122084302D000227F1C04E020783028F4
:104BF00001D100227F1E002A099786D01DE0112DC9
:104C000007DAFFF7B3FE303262556D1C50EA01023D
:104C1000F5D1084302D00098C8B10EE00021681E0B
:104C200005E0235C625C63542254401E491C8142AF
:104C3000F7DBAB46A81B401E0990002004F80B00D0
:104C40000B98099AC0F80880C0E9002B7CE7112670
:104C50004FF0000859E72DE9F04F88460446D21D71
:104C600022F0070191B0D1E90001CDE90A0100F07D
:104C700048FE02460B98C00F01D02D2007E02068A7
:104C8000810701D52B2002E0202101EAC000032A80
:104C9000099001D0072A05DB03464146204600F073
:104CA00081F90BE12078800601D5E06900E006205B
:104CB000B8F1650F814606D0B8F1660F18D0B8F18B
:104CC000670F70D131E00020B9F1110F009001DBC6
:104CD000112301E009F101030AAA01A90CA8FFF7B9
:104CE000E4FEDDE90C70002609F10105834647E08A
:104CF00001204B4600904FF000470AAA01A90CA8DA
:104D0000FFF7D3FEDDE90DB00C995D46002610B922
:104D100009F101000D18B9EB050003D4C0F1FF360D
:104D200009F10105A5EB09002BE0B9F1010F01DA4A
:104D30004FF001090020B9F1110F0090484601DD44
:104D4000112300E003460AAA01A90CA8FFF7ADFE53
:104D5000DDE90C704D4600268346207800070AD412
:104D6000AB4500DA5D4601A8012D04DD411911F8BB
:104D7000011C302907D04F4502DA17F1040F04DA7D
:104D8000012082460FE06D1EEEE7002F02DCED1BD6
:104D90003E4403E0781CA84200DD7D1CB81B00F1F6
:104DA000010A4FF000472078000703D4AA4501DB31
:104DB0004FF0FF3A0021B7F1004F0DF143088DF895
:104DC000431024D002202B23002F01DA7F422D2311
:104DD0000A21021EA0F1010000DC5FB197FBF1FC8B
:104DE00097FBF1F201FB1C7C17460CF1300C08F824
:104DF00001CDEEE7A8F1010003702188090501D576
:104E0000452100E06521A0F1010800F8011C099886
:104E10000FA9A1EB0807FF1D00B10120411901EB0B
:104E2000EA70A1693844081A401EA0612078C006C3
:104E300002D42046FFF7A8FB099828B1D4E9012144
:104E40009047206A401C20622078C00622D5204668
:104E5000FFF79AFB1EE0002E04DBB34502DD01A83C
:104E6000805D00E03020D4E901219047206A401C99
:104E70002062761CAAF101005FEA000A0AD100F064
:104E80008DF8C0680168405CD4E901219047206A30
:104E9000401C2062281EA5F10105DCDC07E0D4E9F6
:104EA000012118F8010B9047206A401C2062381E2F
:104EB000A7F10107F3DC2046FFF77CFB032011B0CC
:104EC00043E610B5436913B1AFF3008001E0FFF78B
:104ED0002BFC012010BD128800F1240182840022E5
:104EE000C2840122EDE711684FF0FF32E9E7007B51
:104EF00000F08000704770B516460C46054600F07D
:104F000045F8036893F80101012806D0FF2C0FD85B
:104F1000185D68B101202C7070BDD3F807013246CE
:104F2000214603F2071303442846BDE870401847A2
:104F30004FF0FF3070BD000000487047640B002048
:104F40007546FFF7F9FFAE4605006946534620F067
:104F50000700854618B020B5FDF764FCBDE8204089
:104F60004FF000064FF000074FF000084FF0000B25
:104F700021F00701AC46ACE8C009ACE8C009ACE8D8
:104F8000C009ACE8C0098D467047000010B500F0BC
:104F900005F8001D10BD00BF49180000004870470B
:104FA000840B00202DE9F0411F46044603260168CA
:104FB000072A01F4006004DB08B116A505E016A578
:104FC00003E008B115A500E015A521F01000206050
:104FD000A069C01EA0610FB1401EA0612046FFF76E
:104FE000D3FA4FB1D4E9012138469047206A401CDA
:104FF0002062C01C206206E0206AFAE7D4E90121A1
:1050000015F8010B9047761EF8D22046FFF7D2FA2A
:10501000BDE8F0814E414E006E616E00494E460083
:10502000696E66002DE9F047814616468AB033481E
:1050300078440DC88DE80D0030487844801C03ACDE
:105040000DC884E80D0041F69B300844372190FBE1
:10505000F1F290FBF1F5A5F1800501FB12041B3C78
:1050600002D56442012000E00020DFF890A08046D5
:105070000027FA44AAF1BE0A0DE0E00709D0324643
:10508000684607EB47010AEB810100F004FB8DE85D
:10509000070064107F1C002CEFD1184F7F44AC3FF9
:1050A00018E0E80714D007EB04100DF1180A90E897
:1050B0000E008AE80E00C068F04201D198190890ED
:1050C000324606A903A800F0E6FA03AB83E807001E
:1050D0006D10641C002DE4D132466946B8F1000F12
:1050E00003A802D000F0C3FA01E000F0D4FAC9E945
:1050F0000001C9F808200AB0BDE8F087A826000022
:105100000446AFF300802046FBF7FDF84FF0013C6A
:1051100050F8042B51F8043B9A4221D1A2EB0C0326
:10512000934313EACC1317D150F8042B51F8043BE6
:105130009A4215D1A2EB0C03934313EACC130BD183
:1051400050F8042B51F8043B9A4209D1A2EB0C030E
:10515000934313EACC13DBD04FF00000704700BF3D
:10516000D01A01BAB1FA81F101F0180122FA01F066
:10517000CB40C1F12001DBB2C0B2C01A2CFA01F35E
:10518000D11A914311EAC311E6D170475FEA400C8E
:1051900008BF91F0000F4FEA8C234FEAC12243EA87
:1051A00051514FEA1C5018BF00F5F0404FEA300053
:1051B00018BF41F000415FEA6C5C00F02980BCF14F
:1051C000FF3F08BF40F080407047130C06BF120439
:1051D0004FF0100C4FF0000C130E04BF12020CF134
:1051E000080C130F04BF12010CF1040C930F04BF41
:1051F00092000CF1020CD30F04BF52000CF1010C11
:1052000011464FF00002A0F11F00A0EB0C00704708
:1052100011F0004F08BF704731F000413FF4D5AFA7
:105220000B0C06BF09044FF0100C4FF0000C0B0ED6
:1052300004BF09020CF1080C0B0F04BF09010CF1AB
:10524000040C8B0F04BF89000CF1020CCB0F04BFC0
:1052500049000CF1010CCCF12003A0EB0C0022FA68
:1052600003F302FA0CF241EA030100F10100704776
:1052700020F07F4C80EA030023F07F47ACEB07036C
:1052800003F57C5300F0004003F1FF032DE9804952
:105290004FEA154B09B44FEA144325EA0B4E24EAB2
:1052A00003480FF2042606EB132749083E785FEA0D
:1052B000320203FB0667C7F5000707FB06F64FEA55
:1052C00054374FEAD64606F1020607FB066CCCF1CE
:1052D000005C4FEA1C472CEA074C07FB06F40CFB6A
:1052E00006F504EB15464FEA961634BF00204FF042
:1052F00000404FEAD13706FB07FC4FEA1C4C0CFB81
:105300000BF7D21B03FB0CF761EB07010CFB0EF74D
:10531000B0EB074072EB17420CFB08F734BFA2EB6F
:105320000742B2EB074261EB17414FEA0C444FEAE8
:10533000910706FB07FC4FEA1C4C0CFB0BF7B0EB8C
:10534000C74072EB573203FB0CF734BFA2EBC742E6
:10535000B2EBC74261EB57310CFB0EF7B0EBC70065
:1053600072EB57720CFB08F734BFA2EBC702B2EB2B
:10537000C70261EB5771039F4FEA816141EA9211C5
:1053800004EBCC044FEAD1374FEA826206FB07FCFC
:1053900042EA90124FEA80604FEA1C4C0CFB0BF77C
:1053A000D21B03FB0CF761EB07010CFB0EF7B0EB14
:1053B000074072EB17420CFB08F734BFA2EB074221
:1053C000B2EB074261EB17414FEA8C554FEA910768
:1053D00004EB9C2406FB07FC4FEA1C4C0CFB0BF770
:1053E000B0EBC74072EB573203FB0CF734BFA2EBB4
:1053F000C742B2EBC74261EB57310CFB0EF7B0EB83
:10540000C70072EB57720CFB08F734BFA2EBC70260
:10541000B2EBC70261EB577115EB4C254FEA816186
:1054200041EA92114FEA82624FEAD13742EA901282
:1054300006FB07FC44F100044FEA80604FEA1C4C75
:105440000CFB0BF7D21B03FB0CF761EB07010CFB0A
:105450000EF7B0EB074072EB17420CFB08F734BFB6
:10546000A2EB0742B2EB074261EB174115EB1C15AB
:105470004FEA813141EA92414FEA823242EA904258
:105480004FEA80304FEA0C7644F1000448EA0343C7
:105490004EEA0B484FF0000EB2EB080C71EB03071D
:1054A00024BF624639464EEB0E0E4FF0000B00183B
:1054B000524149414BEB0B0BB2EB080C71EB03076C
:1054C0007BF1000B24BF624639464EEB0E0E4FF0C7
:1054D000000B0018524149414BEB0B0BB2EB080C8F
:1054E00071EB03077BF1000B24BF624639464EEB9C
:1054F0000E0E51EA020718BF46F0010616EB0E76B3
:1055000055F1000254F1000103D5BDE88901BDE861
:105510000088BDE88901BDE80048B619524141EB59
:105520000101A3F10103704780807F7E7D7C7B7A3F
:105530007978777676757473727171706F6E6E6D3F
:105540006C6C6B6A6A6968686766666564646363E5
:1055500062616160605F5F5E5E5D5D5C5C5B5B5A6B
:105560005A595958585757565655555554545353D8
:1055700052525251515050504F4F4F4E4E4D4D4D33
:105580004C4C4C4B4B4B4A4A4A494949484848477E
:1055900047474746464645454544444444434343BC
:1055A0004342424242414141002B26D4770021D060
:1055B0001CB54FEA370703B44FF010004FF010014D
:1055C0004FF000000FBCBDE810400BF1010BBBF128
:1055D000010F08BF5FEA170722BF12F1010211F1A4
:1055E00001014FF0004143F1000300F0004043EAA5
:1055F00000007047F9D35708DAE746EA064613F188
:10560000400F4FEA16461FDD13F1200FDFBF164390
:105610000A46002120335B42C8D0C3F1200746EA86
:10562000064602FA07F74FEA164646EA0706C3F1AE
:10563000200722FA03F201FA07F721FA03F14FF0EB
:10564000000342EA0702B1E746EA020646EA0646D6
:105650004FEA164646EA0106BCBF46EA0646360C45
:105660004FF000034FF000024FF000019EE72DE9DC
:10567000C048934630B491E8380007C831EA400C7E
:1056800048BF34EA430C03D5FFF7F2FDFFF78CFF68
:10569000F0BCBDE800882DE9C048934630B491E8DD
:1056A000380007C810F0804F08BF13F0804F03D1B7
:1056B00000F005F8FFF778FFF0BCBDE8008820F0A7
:1056C0007F4780EA030023F07F4C07EB0C03A3F530
:1056D0007C5300F00040A3F1FE0392F0000F00F0B5
:1056E000B38095F0000F00F077802DE901494FEA73
:1056F00011404FEA144621EA004800FB06FC24EA68
:10570000064708FB06F607FB08F800FB07F718EB4F
:1057100006484CEB164C4FEA124B18EB07484FEA81
:1057200015464CEB174022EA0B4E0BFB06FC25EA14
:1057300006470EFB06F607FB0EFE0BFB07F71EEBFC
:10574000064E4CEB164C4FF000061EEB074E4CEB92
:10575000174B18EB0B0840F1000018EB0E0B58EB41
:10576000000840F100008F1A4FF000013CBFC94310
:10577000661B14BFB5EB040C00213CBFC943F61BEC
:105780004FEA17444EEA8E0E27EA04454FEA1C47BB
:1057900004FB07622CEA074C05FB07F70CFB05F638
:1057A00004FB0CFC16EB074642EB174216EB0C46CB
:1057B00042EB1C421BEB060658EB0202414146EA53
:1057C0009E0601D5BDE80189B619524141EB0101A0
:1057D000A3F10103BDE801894FEA14454FEA1147DF
:1057E00024EA054621EA074C05FB07F406FB07F708
:1057F0000CFB06F105FB0CFC11EB074144EB1744D5
:105800004FEA124711EB0C4144EB1C4422EA074CCF
:1058100005FB07F206FB07F70CFB06F605FB0CFC85
:1058200016EB074642EB174216EB0C4642EB1C45C3
:105830006A1854F1000148BF7047B619524141EB54
:105840000101A3F10103704795F0000F37D04FEA33
:1058500011424FEA144721EA024624EA074C02FBB0
:1058600007F106FB07F70CFB06F402FB0CFC14EB3C
:10587000074441EB17414FEA154714EB0C4441EB49
:105880001C4125EA074C02FB07F506FB07F70CFB5A
:1058900006F602FB0CFC16EB074645EB174516EB2C
:1058A0000C4645EB1C42121951F1000148BF7047EC
:1058B000B619524141EB0101A3F1010370474FEAD0
:1058C00014454FEA114724EA054621EA074C05FB37
:1058D00007F106FB07F70CFB06F24FF0000605FB8D
:1058E0000CFC12EB074241EB174112EB0C4251EB5F
:1058F0001C4148BF7047921841EB0101A3F101031D
:10590000704703B401984100009850EAC12018BFC5
:1059100004204A0D18BF40F0010040F2FF72B2EBC4
:10592000515F08BF40F00200012808BF052002B007
:1059300070472DED020B019820F0004001909DED85
:10594000000B02B0704700002DE9F04D2DED040B67
:105950002DED0C8B96B0DDE92350259CDDF888A059
:1059600025F0004624F00048BAF1000F14BF0121D1
:10597000002101EB4502FE4953184A1093422AD3F5
:10598000002814BF0123002303EB44030B44F9490F
:105990008B4220D358EA00019FEDF78B6FD0DFF8E0
:1059A000E0B35D4503D1BAF1000F05D187E0BAF14C
:1059B000000F08BF002100D0012101EB450111F5C6
:1059C000001F08D8002814BF0121002101EB440169
:1059D00011F5001F0BD99DED241B9DED220B16B078
:1059E000BDEC0C8B04B0BDE8F04D00F05DBE0027AF
:1059F000002DBCBFE349884521DAE3498845A8BFAB
:105A000002271CDAC3451ADCE04901EB28511429AE
:105A100008DDC1F1340220FA02F101FA02F28242F9
:105A20000DD108E058B9C1F1140228FA02F101FAC7
:105A300002F2424503D101F00101C1F1020756EA29
:105A40000A011DD1002C1BDA002D18BF022F01D036
:105A5000012F0AD00220FEF791FD16B0BDEC0C8B91
:105A600004B0BDE8F04D00F007BE0220FEF786FD51
:105A700000F002FE51EC100B00F0C8FE83E01EE0C7
:105A80009FEDC39B9FEDC4AB002872D1BD488045FC
:105A90002DD105F1804010F5801008BFBAF1000F3C
:105AA0000DD0B34515DC002CA1BF9DED240B16B025
:105AB000BDEC0C8B04B0A8BFBDE8F08D12E0B0EED9
:105AC000480AF0EE680A16B0BDEC0C8B04B0BDE8D5
:105AD000F08D002C06DA9DED240B51EC100B00F03C
